{
  "_format": "hh-sol-artifact-1",
  "contractName": "SimpleStorage",
  "sourceName": "contracts/SimpleStorage.sol",
  "abi": [
    {
      "inputs": [],
      "name": "getValue",
      "outputs": [
        {
          "internalType": "uint256",
          "name": "",
          "type": "uint256"
        }
      ],
      "stateMutability": "view",
      "type": "function"
    },
    {
      "inputs": [
        {
          "internalType": "uint256",
          "name": "_value",
          "type": "uint256"
        }
      ],
      "name": "setValue",
      "outputs": [],
      "stateMutability": "nonpayable",
      "type": "function"
    }
  ],
  "bytecode": "0x608060405234801561001057600080fd5b506101b8806100206000396000f3fe608060405234801561001057600080fd5b50600436106100365760003560e01c8063209652551461003b5780635524107714610059575b600080fd5b610043610075565b6040516100509190610109565b60405180910390f35b610073600480360381019061006e9190610155565b6100bb565b005b600061008b67a9f750e953aa78ac60c01b6100ed565b61009f67173245a7a2b115fe60c01b6100ed565b6100b3670bbe4fd9c877314c60c01b6100ed565b600054905090565b6100cf6742bfbc55708631d460c01b6100ed565b6100e36768ab4a546325434760c01b6100ed565b8060008190555050565b50565b6000819050919050565b610103816100f0565b82525050565b600060208201905061011e60008301846100fa565b92915050565b600080fd5b610132816100f0565b811461013d57600080fd5b50565b60008135905061014f81610129565b92915050565b60006020828403121561016b5761016a610124565b5b600061017984828501610140565b9150509291505056fea26469706673582212204f7566b9d3781ed5e6cefb7992845e8924323b07ef0c204ea834682996db4e4f64736f6c63430008140033",
  "linkReferences": {},
  "deployedLinkReferences": {}
}