{
  "_format": "hh-sol-artifact-1",
  "contractName": "X2EarnAppsMock",
  "sourceName": "contracts/mocks/X2EarnAppsMock.sol",
  "abi": [
    {
      "inputs": [],
      "stateMutability": "nonpayable",
      "type": "constructor"
    },
    {
      "inputs": [
        {
          "internalType": "bytes32",
          "name": "appId",
          "type": "bytes32"
        }
      ],
      "name": "X2EarnAppAlreadyExists",
      "type": "error"
    },
    {
      "inputs": [
        {
          "internalType": "address",
          "name": "addr",
          "type": "address"
        }
      ],
      "name": "X2EarnInvalidAddress",
      "type": "error"
    },
    {
      "inputs": [
        {
          "internalType": "bytes32",
          "name": "appId",
          "type": "bytes32"
        }
      ],
      "name": "X2EarnMaxRewardDistributorsReached",
      "type": "error"
    },
    {
      "inputs": [
        {
          "internalType": "bytes32",
          "name": "appId",
          "type": "bytes32"
        }
      ],
      "name": "X2EarnNonexistentApp",
      "type": "error"
    },
    {
      "inputs": [
        {
          "internalType": "bytes32",
          "name": "appId",
          "type": "bytes32"
        },
        {
          "internalType": "address",
          "name": "distributorAddress",
          "type": "address"
        }
      ],
      "name": "X2EarnNonexistentRewardDistributor",
      "type": "error"
    },
    {
      "inputs": [
        {
          "internalType": "address",
          "name": "user",
          "type": "address"
        }
      ],
      "name": "X2EarnUnauthorizedUser",
      "type": "error"
    },
    {
      "anonymous": false,
      "inputs": [
        {
          "indexed": true,
          "internalType": "bytes32",
          "name": "id",
          "type": "bytes32"
        },
        {
          "indexed": false,
          "internalType": "address",
          "name": "addr",
          "type": "address"
        },
        {
          "indexed": false,
          "internalType": "string",
          "name": "name",
          "type": "string"
        },
        {
          "indexed": false,
          "internalType": "bool",
          "name": "appAvailableForAllocationVoting",
          "type": "bool"
        }
      ],
      "name": "AppAdded",
      "type": "event"
    },
    {
      "anonymous": false,
      "inputs": [
        {
          "indexed": true,
          "internalType": "bytes32",
          "name": "appId",
          "type": "bytes32"
        },
        {
          "indexed": false,
          "internalType": "address",
          "name": "oldAdmin",
          "type": "address"
        },
        {
          "indexed": false,
          "internalType": "address",
          "name": "newAdmin",
          "type": "address"
        }
      ],
      "name": "AppAdminUpdated",
      "type": "event"
    },
    {
      "anonymous": false,
      "inputs": [
        {
          "indexed": true,
          "internalType": "bytes32",
          "name": "appId",
          "type": "bytes32"
        },
        {
          "indexed": false,
          "internalType": "address",
          "name": "distributorAddress",
          "type": "address"
        }
      ],
      "name": "RewardDistributorAddedToApp",
      "type": "event"
    },
    {
      "anonymous": false,
      "inputs": [
        {
          "indexed": true,
          "internalType": "bytes32",
          "name": "appId",
          "type": "bytes32"
        },
        {
          "indexed": false,
          "internalType": "address",
          "name": "distributorAddress",
          "type": "address"
        }
      ],
      "name": "RewardDistributorRemovedFromApp",
      "type": "event"
    },
    {
      "anonymous": false,
      "inputs": [
        {
          "indexed": true,
          "internalType": "bytes32",
          "name": "appId",
          "type": "bytes32"
        },
        {
          "indexed": false,
          "internalType": "address",
          "name": "oldTeamWalletAddress",
          "type": "address"
        },
        {
          "indexed": false,
          "internalType": "address",
          "name": "newTeamWalletAddress",
          "type": "address"
        }
      ],
      "name": "TeamWalletAddressUpdated",
      "type": "event"
    },
    {
      "inputs": [],
      "name": "MAX_MODERATORS",
      "outputs": [
        {
          "internalType": "uint256",
          "name": "",
          "type": "uint256"
        }
      ],
      "stateMutability": "view",
      "type": "function"
    },
    {
      "inputs": [],
      "name": "MAX_REWARD_DISTRIBUTORS",
      "outputs": [
        {
          "internalType": "uint256",
          "name": "",
          "type": "uint256"
        }
      ],
      "stateMutability": "view",
      "type": "function"
    },
    {
      "inputs": [
        {
          "internalType": "address",
          "name": "_teamWalletAddress",
          "type": "address"
        },
        {
          "internalType": "address",
          "name": "_admin",
          "type": "address"
        },
        {
          "internalType": "string",
          "name": "_appName",
          "type": "string"
        }
      ],
      "name": "addApp",
      "outputs": [],
      "stateMutability": "nonpayable",
      "type": "function"
    },
    {
      "inputs": [
        {
          "internalType": "bytes32",
          "name": "_appId",
          "type": "bytes32"
        },
        {
          "internalType": "address",
          "name": "_distributor",
          "type": "address"
        }
      ],
      "name": "addRewardDistributor",
      "outputs": [],
      "stateMutability": "nonpayable",
      "type": "function"
    },
    {
      "inputs": [
        {
          "internalType": "bytes32",
          "name": "appId",
          "type": "bytes32"
        }
      ],
      "name": "appExists",
      "outputs": [
        {
          "internalType": "bool",
          "name": "",
          "type": "bool"
        }
      ],
      "stateMutability": "view",
      "type": "function"
    },
    {
      "inputs": [
        {
          "internalType": "string",
          "name": "appName",
          "type": "string"
        }
      ],
      "name": "hashAppName",
      "outputs": [
        {
          "internalType": "bytes32",
          "name": "",
          "type": "bytes32"
        }
      ],
      "stateMutability": "pure",
      "type": "function"
    },
    {
      "inputs": [
        {
          "internalType": "bytes32",
          "name": "appId",
          "type": "bytes32"
        },
        {
          "internalType": "address",
          "name": "account",
          "type": "address"
        }
      ],
      "name": "isAppAdmin",
      "outputs": [
        {
          "internalType": "bool",
          "name": "",
          "type": "bool"
        }
      ],
      "stateMutability": "view",
      "type": "function"
    },
    {
      "inputs": [
        {
          "internalType": "bytes32",
          "name": "appId",
          "type": "bytes32"
        },
        {
          "internalType": "address",
          "name": "account",
          "type": "address"
        }
      ],
      "name": "isRewardDistributor",
      "outputs": [
        {
          "internalType": "bool",
          "name": "",
          "type": "bool"
        }
      ],
      "stateMutability": "view",
      "type": "function"
    },
    {
      "inputs": [
        {
          "internalType": "bytes32",
          "name": "_appId",
          "type": "bytes32"
        },
        {
          "internalType": "address",
          "name": "_distributor",
          "type": "address"
        }
      ],
      "name": "removeRewardDistributor",
      "outputs": [],
      "stateMutability": "nonpayable",
      "type": "function"
    },
    {
      "inputs": [
        {
          "internalType": "bytes32",
          "name": "_appId",
          "type": "bytes32"
        },
        {
          "internalType": "address",
          "name": "_newAdmin",
          "type": "address"
        }
      ],
      "name": "setAppAdmin",
      "outputs": [],
      "stateMutability": "nonpayable",
      "type": "function"
    },
    {
      "inputs": [
        {
          "internalType": "bytes32",
          "name": "appId",
          "type": "bytes32"
        }
      ],
      "name": "teamWalletAddress",
      "outputs": [
        {
          "internalType": "address",
          "name": "",
          "type": "address"
        }
      ],
      "stateMutability": "view",
      "type": "function"
    }
  ],
  "bytecode": "0x608060405234801561001057600080fd5b506118e6806100206000396000f3fe608060405234801561001057600080fd5b50600436106100a95760003560e01c80636a0ae325116100715780636a0ae32514610178578063833d29b41461019657806383802165146101b25780638e3a29dc146101ce578063a06bb129146101fe578063b58a75471461021a576100a9565b80631772503b146100ae578063228cf42f146100de57806334b0e6b3146100fc578063607bfb241461012c578063652c97aa1461015c575b600080fd5b6100c860048036038101906100c39190610fe0565b61024a565b6040516100d5919061104e565b60405180910390f35b6100e6610295565b6040516100f39190611082565b60405180910390f35b610116600480360381019061011191906111e3565b61029a565b604051610123919061123b565b60405180910390f35b61014660048036038101906101419190610fe0565b6102ca565b6040516101539190611271565b60405180910390f35b610176600480360381019061017191906112b8565b6102fc565b005b61018061030c565b60405161018d9190611082565b60405180910390f35b6101b060048036038101906101ab9190611327565b610311565b005b6101cc60048036038101906101c79190611327565b61036c565b005b6101e860048036038101906101e39190611327565b61037a565b6040516101f59190611271565b60405180910390f35b61021860048036038101906102139190611327565b6103f4565b005b610234600480360381019061022f9190611327565b610402565b6040516102419190611271565b60405180910390f35b600080610255610533565b905080600301600084815260200190815260200160002060009054906101000a900473ffffffffffffffffffffffffffffffffffffffff16915050919050565b606481565b6000816040516020016102ad91906113d8565b604051602081830303815290604052805190602001209050919050565b6000806102d561055b565b90506000816000016000858152602001908152602001600020600201541415915050919050565b610307838383610583565b505050565b606481565b8161031c813361037a565b61035d57336040517fc74e099e000000000000000000000000000000000000000000000000000000008152600401610354919061104e565b60405180910390fd5b61036783836107a9565b505050565b6103768282610938565b5050565b600080610385610533565b90508273ffffffffffffffffffffffffffffffffffffffff1681600001600086815260200190815260200160002060009054906101000a900473ffffffffffffffffffffffffffffffffffffffff1673ffffffffffffffffffffffffffffffffffffffff161491505092915050565b6103fe8282610b0f565b5050565b60008061040d610533565b905060008160020160008681526020019081526020016000208054806020026020016040519081016040528092919081815260200182805480156104a657602002820191906000526020600020905b8160009054906101000a900473ffffffffffffffffffffffffffffffffffffffff1673ffffffffffffffffffffffffffffffffffffffff168152602001906001019080831161045c575b5050505050905060005b8151811015610525578473ffffffffffffffffffffffffffffffffffffffff168282815181106104e3576104e26113ef565b5b602002602001015173ffffffffffffffffffffffffffffffffffffffff1603610512576001935050505061052d565b808061051d9061144d565b9150506104b0565b506000925050505b92915050565b60007f5830f0e95c01712d916c34d9e2fa42e9f749b325b67bce7382d70bb99c623500905090565b60007fb6909058bd527140b8d55a44344c5e42f1f148f1b3b16df7641882df8dd72900905090565b600073ffffffffffffffffffffffffffffffffffffffff168373ffffffffffffffffffffffffffffffffffffffff16036105f457826040517f3aa06cfc0000000000000000000000000000000000000000000000000000000081526004016105eb919061104e565b60405180910390fd5b600073ffffffffffffffffffffffffffffffffffffffff168273ffffffffffffffffffffffffffffffffffffffff160361066557816040517f3aa06cfc00000000000000000000000000000000000000000000000000000000815260040161065c919061104e565b60405180910390fd5b600061066f61055b565b9050600061067c8361029a565b9050610687816102ca565b156106c957806040517f6b4fdeb30000000000000000000000000000000000000000000000000000000081526004016106c0919061123b565b60405180910390fd5b60405180606001604052808281526020018481526020014281525082600001600083815260200190815260200160002060008201518160000155602082015181600101908161071891906116a1565b50604082015181600201559050508160010181908060018154018082558091505060019003906000526020600020016000909190919091505561075b81856107a9565b6107658186610e01565b807f181c8615e49dc4eaed218e1d225e4a34a0fb364fc70601a191573daa19d57eda8685600160405161079a939291906117bd565b60405180910390a25050505050565b6107b2826102ca565b6107f357816040517f0c7ac5780000000000000000000000000000000000000000000000000000000081526004016107ea919061123b565b60405180910390fd5b600073ffffffffffffffffffffffffffffffffffffffff168173ffffffffffffffffffffffffffffffffffffffff160361086457806040517f3aa06cfc00000000000000000000000000000000000000000000000000000000815260040161085b919061104e565b60405180910390fd5b600061086e610533565b9050827ff731532cb185ec0e4f09f397cce651bf601970ff3c051d753e42a427448c3d2082600001600086815260200190815260200160002060009054906101000a900473ffffffffffffffffffffffffffffffffffffffff16846040516108d79291906117fb565b60405180910390a28181600001600085815260200190815260200160002060006101000a81548173ffffffffffffffffffffffffffffffffffffffff021916908373ffffffffffffffffffffffffffffffffffffffff160217905550505050565b600073ffffffffffffffffffffffffffffffffffffffff168173ffffffffffffffffffffffffffffffffffffffff16036109a957806040517f3aa06cfc0000000000000000000000000000000000000000000000000000000081526004016109a0919061104e565b60405180910390fd5b6109b2826102ca565b6109f357816040517f0c7ac5780000000000000000000000000000000000000000000000000000000081526004016109ea919061123b565b60405180910390fd5b60006109fd610533565b905060648160020160008581526020019081526020016000208054905010610a5c57826040517f3be3601b000000000000000000000000000000000000000000000000000000008152600401610a53919061123b565b60405180910390fd5b806002016000848152602001908152602001600020829080600181540180825580915050600190039060005260206000200160009091909190916101000a81548173ffffffffffffffffffffffffffffffffffffffff021916908373ffffffffffffffffffffffffffffffffffffffff160217905550827fff61d9fea8a697c08f6ce345a762521d2e5fd7cce8e235fb4bf9337ba0c57c2983604051610b02919061104e565b60405180910390a2505050565b600073ffffffffffffffffffffffffffffffffffffffff168173ffffffffffffffffffffffffffffffffffffffff1603610b8057806040517f3aa06cfc000000000000000000000000000000000000000000000000000000008152600401610b77919061104e565b60405180910390fd5b610b89826102ca565b610bca57816040517f0c7ac578000000000000000000000000000000000000000000000000000000008152600401610bc1919061123b565b60405180910390fd5b610bd48282610402565b610c175781816040517fbecb2b1e000000000000000000000000000000000000000000000000000000008152600401610c0e929190611824565b60405180910390fd5b6000610c21610533565b90506000816002016000858152602001908152602001600020905060005b8180549050811015610dfa578373ffffffffffffffffffffffffffffffffffffffff16828281548110610c7557610c746113ef565b5b9060005260206000200160009054906101000a900473ffffffffffffffffffffffffffffffffffffffff1673ffffffffffffffffffffffffffffffffffffffff1603610de7578160018380549050610ccd919061184d565b81548110610cde57610cdd6113ef565b5b9060005260206000200160009054906101000a900473ffffffffffffffffffffffffffffffffffffffff16828281548110610d1c57610d1b6113ef565b5b9060005260206000200160006101000a81548173ffffffffffffffffffffffffffffffffffffffff021916908373ffffffffffffffffffffffffffffffffffffffff16021790555081805480610d7557610d74611881565b5b6001900381819060005260206000200160006101000a81549073ffffffffffffffffffffffffffffffffffffffff02191690559055847f5d49a79e91765aff88a22b5e1ac2373c3035e839101aca1496177c0709e53b5a85604051610dda919061104e565b60405180910390a2610dfa565b8080610df29061144d565b915050610c3f565b5050505050565b600073ffffffffffffffffffffffffffffffffffffffff168173ffffffffffffffffffffffffffffffffffffffff1603610e7257806040517f3aa06cfc000000000000000000000000000000000000000000000000000000008152600401610e69919061104e565b60405180910390fd5b610e7b826102ca565b610ebc57816040517f0c7ac578000000000000000000000000000000000000000000000000000000008152600401610eb3919061123b565b60405180910390fd5b6000610ec6610533565b9050600081600301600085815260200190815260200160002060009054906101000a900473ffffffffffffffffffffffffffffffffffffffff1690508282600301600086815260200190815260200160002060006101000a81548173ffffffffffffffffffffffffffffffffffffffff021916908373ffffffffffffffffffffffffffffffffffffffff160217905550837f9402e8cef9f513d1d61b2df14b6521dfc70cfe4f750d10e413ef6f618b4be4f68285604051610f889291906117fb565b60405180910390a250505050565b6000604051905090565b600080fd5b600080fd5b6000819050919050565b610fbd81610faa565b8114610fc857600080fd5b50565b600081359050610fda81610fb4565b92915050565b600060208284031215610ff657610ff5610fa0565b5b600061100484828501610fcb565b91505092915050565b600073ffffffffffffffffffffffffffffffffffffffff82169050919050565b60006110388261100d565b9050919050565b6110488161102d565b82525050565b6000602082019050611063600083018461103f565b92915050565b6000819050919050565b61107c81611069565b82525050565b60006020820190506110976000830184611073565b92915050565b600080fd5b600080fd5b6000601f19601f8301169050919050565b7f4e487b7100000000000000000000000000000000000000000000000000000000600052604160045260246000fd5b6110f0826110a7565b810181811067ffffffffffffffff8211171561110f5761110e6110b8565b5b80604052505050565b6000611122610f96565b905061112e82826110e7565b919050565b600067ffffffffffffffff82111561114e5761114d6110b8565b5b611157826110a7565b9050602081019050919050565b82818337600083830152505050565b600061118661118184611133565b611118565b9050828152602081018484840111156111a2576111a16110a2565b5b6111ad848285611164565b509392505050565b600082601f8301126111ca576111c961109d565b5b81356111da848260208601611173565b91505092915050565b6000602082840312156111f9576111f8610fa0565b5b600082013567ffffffffffffffff81111561121757611216610fa5565b5b611223848285016111b5565b91505092915050565b61123581610faa565b82525050565b6000602082019050611250600083018461122c565b92915050565b60008115159050919050565b61126b81611256565b82525050565b60006020820190506112866000830184611262565b92915050565b6112958161102d565b81146112a057600080fd5b50565b6000813590506112b28161128c565b92915050565b6000806000606084860312156112d1576112d0610fa0565b5b60006112df868287016112a3565b93505060206112f0868287016112a3565b925050604084013567ffffffffffffffff81111561131157611310610fa5565b5b61131d868287016111b5565b9150509250925092565b6000806040838503121561133e5761133d610fa0565b5b600061134c85828601610fcb565b925050602061135d858286016112a3565b9150509250929050565b600081519050919050565b600081905092915050565b60005b8381101561139b578082015181840152602081019050611380565b60008484015250505050565b60006113b282611367565b6113bc8185611372565b93506113cc81856020860161137d565b80840191505092915050565b60006113e482846113a7565b915081905092915050565b7f4e487b7100000000000000000000000000000000000000000000000000000000600052603260045260246000fd5b7f4e487b7100000000000000000000000000000000000000000000000000000000600052601160045260246000fd5b600061145882611069565b91507fffffffffffffffffffffffffffffffffffffffffffffffffffffffffffffffff820361148a5761148961141e565b5b600182019050919050565b7f4e487b7100000000000000000000000000000000000000000000000000000000600052602260045260246000fd5b600060028204905060018216806114dc57607f821691505b6020821081036114ef576114ee611495565b5b50919050565b60008190508160005260206000209050919050565b60006020601f8301049050919050565b600082821b905092915050565b6000600883026115577fffffffffffffffffffffffffffffffffffffffffffffffffffffffffffffffff8261151a565b611561868361151a565b95508019841693508086168417925050509392505050565b6000819050919050565b600061159e61159961159484611069565b611579565b611069565b9050919050565b6000819050919050565b6115b883611583565b6115cc6115c4826115a5565b848454611527565b825550505050565b600090565b6115e16115d4565b6115ec8184846115af565b505050565b5b81811015611610576116056000826115d9565b6001810190506115f2565b5050565b601f82111561165557611626816114f5565b61162f8461150a565b8101602085101561163e578190505b61165261164a8561150a565b8301826115f1565b50505b505050565b600082821c905092915050565b60006116786000198460080261165a565b1980831691505092915050565b60006116918383611667565b9150826002028217905092915050565b6116aa82611367565b67ffffffffffffffff8111156116c3576116c26110b8565b5b6116cd82546114c4565b6116d8828285611614565b600060209050601f83116001811461170b57600084156116f9578287015190505b6117038582611685565b86555061176b565b601f198416611719866114f5565b60005b828110156117415784890151825560018201915060208501945060208101905061171c565b8683101561175e578489015161175a601f891682611667565b8355505b6001600288020188555050505b505050505050565b600082825260208201905092915050565b600061178f82611367565b6117998185611773565b93506117a981856020860161137d565b6117b2816110a7565b840191505092915050565b60006060820190506117d2600083018661103f565b81810360208301526117e48185611784565b90506117f36040830184611262565b949350505050565b6000604082019050611810600083018561103f565b61181d602083018461103f565b9392505050565b6000604082019050611839600083018561122c565b611846602083018461103f565b9392505050565b600061185882611069565b915061186383611069565b925082820390508181111561187b5761187a61141e565b5b92915050565b7f4e487b7100000000000000000000000000000000000000000000000000000000600052603160045260246000fdfea26469706673582212203f0af35ee523f466725fb026fcd6a0745a81a8d61392ed2551d2fdbabab22f7964736f6c63430008140033",
  "linkReferences": {},
  "deployedLinkReferences": {}
}