{
  "_format": "hh-sol-artifact-1",
  "contractName": "BaseUpgradeable",
  "sourceName": "contracts/templates/BaseUpgradeable.sol",
  "abi": [
    {
      "inputs": [],
      "stateMutability": "nonpayable",
      "type": "constructor"
    },
    {
      "inputs": [],
      "name": "AccessControlBadConfirmation",
      "type": "error"
    },
    {
      "inputs": [
        {
          "internalType": "address",
          "name": "account",
          "type": "address"
        },
        {
          "internalType": "bytes32",
          "name": "neededRole",
          "type": "bytes32"
        }
      ],
      "name": "AccessControlUnauthorizedAccount",
      "type": "error"
    },
    {
      "inputs": [
        {
          "internalType": "address",
          "name": "target",
          "type": "address"
        }
      ],
      "name": "AddressEmptyCode",
      "type": "error"
    },
    {
      "inputs": [
        {
          "internalType": "address",
          "name": "implementation",
          "type": "address"
        }
      ],
      "name": "ERC1967InvalidImplementation",
      "type": "error"
    },
    {
      "inputs": [],
      "name": "ERC1967NonPayable",
      "type": "error"
    },
    {
      "inputs": [],
      "name": "FailedInnerCall",
      "type": "error"
    },
    {
      "inputs": [],
      "name": "InvalidInitialization",
      "type": "error"
    },
    {
      "inputs": [],
      "name": "NotInitializing",
      "type": "error"
    },
    {
      "inputs": [],
      "name": "UUPSUnauthorizedCallContext",
      "type": "error"
    },
    {
      "inputs": [
        {
          "internalType": "bytes32",
          "name": "slot",
          "type": "bytes32"
        }
      ],
      "name": "UUPSUnsupportedProxiableUUID",
      "type": "error"
    },
    {
      "inputs": [
        {
          "internalType": "address",
          "name": "user",
          "type": "address"
        }
      ],
      "name": "UnauthorizedUser",
      "type": "error"
    },
    {
      "anonymous": false,
      "inputs": [
        {
          "indexed": false,
          "internalType": "uint64",
          "name": "version",
          "type": "uint64"
        }
      ],
      "name": "Initialized",
      "type": "event"
    },
    {
      "anonymous": false,
      "inputs": [
        {
          "indexed": true,
          "internalType": "bytes32",
          "name": "role",
          "type": "bytes32"
        },
        {
          "indexed": true,
          "internalType": "bytes32",
          "name": "previousAdminRole",
          "type": "bytes32"
        },
        {
          "indexed": true,
          "internalType": "bytes32",
          "name": "newAdminRole",
          "type": "bytes32"
        }
      ],
      "name": "RoleAdminChanged",
      "type": "event"
    },
    {
      "anonymous": false,
      "inputs": [
        {
          "indexed": true,
          "internalType": "bytes32",
          "name": "role",
          "type": "bytes32"
        },
        {
          "indexed": true,
          "internalType": "address",
          "name": "account",
          "type": "address"
        },
        {
          "indexed": true,
          "internalType": "address",
          "name": "sender",
          "type": "address"
        }
      ],
      "name": "RoleGranted",
      "type": "event"
    },
    {
      "anonymous": false,
      "inputs": [
        {
          "indexed": true,
          "internalType": "bytes32",
          "name": "role",
          "type": "bytes32"
        },
        {
          "indexed": true,
          "internalType": "address",
          "name": "account",
          "type": "address"
        },
        {
          "indexed": true,
          "internalType": "address",
          "name": "sender",
          "type": "address"
        }
      ],
      "name": "RoleRevoked",
      "type": "event"
    },
    {
      "anonymous": false,
      "inputs": [
        {
          "indexed": true,
          "internalType": "address",
          "name": "implementation",
          "type": "address"
        }
      ],
      "name": "Upgraded",
      "type": "event"
    },
    {
      "inputs": [],
      "name": "DEFAULT_ADMIN_ROLE",
      "outputs": [
        {
          "internalType": "bytes32",
          "name": "",
          "type": "bytes32"
        }
      ],
      "stateMutability": "view",
      "type": "function"
    },
    {
      "inputs": [],
      "name": "UPGRADER_ROLE",
      "outputs": [
        {
          "internalType": "bytes32",
          "name": "",
          "type": "bytes32"
        }
      ],
      "stateMutability": "view",
      "type": "function"
    },
    {
      "inputs": [],
      "name": "UPGRADE_INTERFACE_VERSION",
      "outputs": [
        {
          "internalType": "string",
          "name": "",
          "type": "string"
        }
      ],
      "stateMutability": "view",
      "type": "function"
    },
    {
      "inputs": [
        {
          "internalType": "bytes32",
          "name": "role",
          "type": "bytes32"
        }
      ],
      "name": "getRoleAdmin",
      "outputs": [
        {
          "internalType": "bytes32",
          "name": "",
          "type": "bytes32"
        }
      ],
      "stateMutability": "view",
      "type": "function"
    },
    {
      "inputs": [
        {
          "internalType": "bytes32",
          "name": "role",
          "type": "bytes32"
        },
        {
          "internalType": "address",
          "name": "account",
          "type": "address"
        }
      ],
      "name": "grantRole",
      "outputs": [],
      "stateMutability": "nonpayable",
      "type": "function"
    },
    {
      "inputs": [
        {
          "internalType": "bytes32",
          "name": "role",
          "type": "bytes32"
        },
        {
          "internalType": "address",
          "name": "account",
          "type": "address"
        }
      ],
      "name": "hasRole",
      "outputs": [
        {
          "internalType": "bool",
          "name": "",
          "type": "bool"
        }
      ],
      "stateMutability": "view",
      "type": "function"
    },
    {
      "inputs": [
        {
          "internalType": "address",
          "name": "_upgrader",
          "type": "address"
        },
        {
          "internalType": "address[]",
          "name": "_admins",
          "type": "address[]"
        }
      ],
      "name": "initialize",
      "outputs": [],
      "stateMutability": "nonpayable",
      "type": "function"
    },
    {
      "inputs": [],
      "name": "proxiableUUID",
      "outputs": [
        {
          "internalType": "bytes32",
          "name": "",
          "type": "bytes32"
        }
      ],
      "stateMutability": "view",
      "type": "function"
    },
    {
      "inputs": [
        {
          "internalType": "bytes32",
          "name": "role",
          "type": "bytes32"
        },
        {
          "internalType": "address",
          "name": "callerConfirmation",
          "type": "address"
        }
      ],
      "name": "renounceRole",
      "outputs": [],
      "stateMutability": "nonpayable",
      "type": "function"
    },
    {
      "inputs": [
        {
          "internalType": "bytes32",
          "name": "role",
          "type": "bytes32"
        },
        {
          "internalType": "address",
          "name": "account",
          "type": "address"
        }
      ],
      "name": "revokeRole",
      "outputs": [],
      "stateMutability": "nonpayable",
      "type": "function"
    },
    {
      "inputs": [
        {
          "internalType": "bytes4",
          "name": "interfaceId",
          "type": "bytes4"
        }
      ],
      "name": "supportsInterface",
      "outputs": [
        {
          "internalType": "bool",
          "name": "",
          "type": "bool"
        }
      ],
      "stateMutability": "view",
      "type": "function"
    },
    {
      "inputs": [
        {
          "internalType": "address",
          "name": "newImplementation",
          "type": "address"
        },
        {
          "internalType": "bytes",
          "name": "data",
          "type": "bytes"
        }
      ],
      "name": "upgradeToAndCall",
      "outputs": [],
      "stateMutability": "payable",
      "type": "function"
    }
  ],
  "bytecode": "0x60a06040523073ffffffffffffffffffffffffffffffffffffffff1660809073ffffffffffffffffffffffffffffffffffffffff168152503480156200004457600080fd5b50620000556200005b60201b60201c565b620001cf565b60006200006d6200016560201b60201c565b90508060000160089054906101000a900460ff1615620000b9576040517ff92ee8a900000000000000000000000000000000000000000000000000000000815260040160405180910390fd5b67ffffffffffffffff80168160000160009054906101000a900467ffffffffffffffff1667ffffffffffffffff1614620001625767ffffffffffffffff8160000160006101000a81548167ffffffffffffffff021916908367ffffffffffffffff1602179055507fc7f505b2f371ae2175ee4913f4499e1f2633a7b5936321eed1cdaeb6115181d267ffffffffffffffff604051620001599190620001b2565b60405180910390a15b50565b60007ff0c57e16840df040f15088dc2f81fe391c3923bec73e23a9662efc9c229c6a00905090565b600067ffffffffffffffff82169050919050565b620001ac816200018d565b82525050565b6000602082019050620001c96000830184620001a1565b92915050565b608051611ac7620001f960003960008181610b1a01528181610b6f0152610d4d0152611ac76000f3fe6080604052600436106100a75760003560e01c806391d148541161006457806391d14854146101bf578063946d9204146101fc578063a217fddf14610225578063ad3cb1cc14610250578063d547741f1461027b578063f72c0d8b146102a4576100a7565b806301ffc9a7146100ac578063248a9ca3146100e95780632f2ff15d1461012657806336568abe1461014f5780634f1ef2861461017857806352d1902d14610194575b600080fd5b3480156100b857600080fd5b506100d360048036038101906100ce9190611261565b6102cf565b6040516100e091906112a9565b60405180910390f35b3480156100f557600080fd5b50610110600480360381019061010b91906112fa565b610349565b60405161011d9190611336565b60405180910390f35b34801561013257600080fd5b5061014d600480360381019061014891906113af565b610377565b005b34801561015b57600080fd5b50610176600480360381019061017191906113af565b610399565b005b610192600480360381019061018d9190611535565b610414565b005b3480156101a057600080fd5b506101a9610433565b6040516101b69190611336565b60405180910390f35b3480156101cb57600080fd5b506101e660048036038101906101e191906113af565b610466565b6040516101f391906112a9565b60405180910390f35b34801561020857600080fd5b50610223600480360381019061021e9190611659565b6104df565b005b34801561023157600080fd5b5061023a6107e1565b6040516102479190611336565b60405180910390f35b34801561025c57600080fd5b506102656107e8565b6040516102729190611734565b60405180910390f35b34801561028757600080fd5b506102a2600480360381019061029d91906113af565b610821565b005b3480156102b057600080fd5b506102b9610843565b6040516102c69190611336565b60405180910390f35b60007f7965db0b000000000000000000000000000000000000000000000000000000007bffffffffffffffffffffffffffffffffffffffffffffffffffffffff1916827bffffffffffffffffffffffffffffffffffffffffffffffffffffffff19161480610342575061034182610867565b5b9050919050565b6000806103546108d1565b905080600001600084815260200190815260200160002060010154915050919050565b61038082610349565b610389816108f9565b610393838361090d565b50505050565b6103a1610a0e565b73ffffffffffffffffffffffffffffffffffffffff168173ffffffffffffffffffffffffffffffffffffffff1614610405576040517f6697b23200000000000000000000000000000000000000000000000000000000815260040160405180910390fd5b61040f8282610a16565b505050565b61041c610b18565b61042582610bfe565b61042f8282610c2c565b5050565b600061043d610d4b565b7f360894a13ba1a3210667c828492db98dca3e2076cc3735a920a3ca505d382bbc60001b905090565b6000806104716108d1565b905080600001600085815260200190815260200160002060000160008473ffffffffffffffffffffffffffffffffffffffff1673ffffffffffffffffffffffffffffffffffffffff16815260200190815260200160002060009054906101000a900460ff1691505092915050565b60006104e9610dd2565b905060008160000160089054906101000a900460ff1615905060008260000160009054906101000a900467ffffffffffffffff1690506000808267ffffffffffffffff161480156105375750825b9050600060018367ffffffffffffffff1614801561056c575060003073ffffffffffffffffffffffffffffffffffffffff163b145b90508115801561057a575080155b156105b1576040517ff92ee8a900000000000000000000000000000000000000000000000000000000815260040160405180910390fd5b60018560000160006101000a81548167ffffffffffffffff021916908367ffffffffffffffff16021790555083156106015760018560000160086101000a81548160ff0219169083151502179055505b600073ffffffffffffffffffffffffffffffffffffffff168773ffffffffffffffffffffffffffffffffffffffff1603610670576040517f08c379a0000000000000000000000000000000000000000000000000000000008152600401610667906117c8565b60405180910390fd5b610678610dfa565b610680610e04565b6106aa7f189ab7a9244df0848122154315af71fe140f3db0fe014031783b0946b8c9d2e38861090d565b5060005b865181101561077b57600073ffffffffffffffffffffffffffffffffffffffff168782815181106106e2576106e16117e8565b5b602002602001015173ffffffffffffffffffffffffffffffffffffffff1603610740576040517f08c379a000000000000000000000000000000000000000000000000000000000815260040161073790611889565b60405180910390fd5b6107676000801b88838151811061075a576107596117e8565b5b602002602001015161090d565b508080610773906118e2565b9150506106ae565b5083156107d85760008560000160086101000a81548160ff0219169083151502179055507fc7f505b2f371ae2175ee4913f4499e1f2633a7b5936321eed1cdaeb6115181d260016040516107cf9190611983565b60405180910390a15b50505050505050565b6000801b81565b6040518060400160405280600581526020017f352e302e3000000000000000000000000000000000000000000000000000000081525081565b61082a82610349565b610833816108f9565b61083d8383610a16565b50505050565b7f189ab7a9244df0848122154315af71fe140f3db0fe014031783b0946b8c9d2e381565b60007f01ffc9a7000000000000000000000000000000000000000000000000000000007bffffffffffffffffffffffffffffffffffffffffffffffffffffffff1916827bffffffffffffffffffffffffffffffffffffffffffffffffffffffff1916149050919050565b60007f02dd7bc7dec4dceedda775e58dd541e08a116c6c53815c0bd028192f7b626800905090565b61090a81610905610a0e565b610e0e565b50565b6000806109186108d1565b90506109248484610466565b610a0257600181600001600086815260200190815260200160002060000160008573ffffffffffffffffffffffffffffffffffffffff1673ffffffffffffffffffffffffffffffffffffffff16815260200190815260200160002060006101000a81548160ff02191690831515021790555061099e610a0e565b73ffffffffffffffffffffffffffffffffffffffff168373ffffffffffffffffffffffffffffffffffffffff16857f2f8788117e7eff1d82e926ec794901d17c78024a50270940304540a733656f0d60405160405180910390a46001915050610a08565b60009150505b92915050565b600033905090565b600080610a216108d1565b9050610a2d8484610466565b15610b0c57600081600001600086815260200190815260200160002060000160008573ffffffffffffffffffffffffffffffffffffffff1673ffffffffffffffffffffffffffffffffffffffff16815260200190815260200160002060006101000a81548160ff021916908315150217905550610aa8610a0e565b73ffffffffffffffffffffffffffffffffffffffff168373ffffffffffffffffffffffffffffffffffffffff16857ff6391f5c32d9c69d2a47ea670b442974b53935d1edc7fd64eb21e047a839171b60405160405180910390a46001915050610b12565b60009150505b92915050565b7f000000000000000000000000000000000000000000000000000000000000000073ffffffffffffffffffffffffffffffffffffffff163073ffffffffffffffffffffffffffffffffffffffff161480610bc557507f000000000000000000000000000000000000000000000000000000000000000073ffffffffffffffffffffffffffffffffffffffff16610bac610e5f565b73ffffffffffffffffffffffffffffffffffffffff1614155b15610bfc576040517fe07c8dba00000000000000000000000000000000000000000000000000000000815260040160405180910390fd5b565b7f189ab7a9244df0848122154315af71fe140f3db0fe014031783b0946b8c9d2e3610c28816108f9565b5050565b8173ffffffffffffffffffffffffffffffffffffffff166352d1902d6040518163ffffffff1660e01b8152600401602060405180830381865afa925050508015610c9457506040513d601f19601f82011682018060405250810190610c9191906119b3565b60015b610cd557816040517f4c9c8ce3000000000000000000000000000000000000000000000000000000008152600401610ccc91906119ef565b60405180910390fd5b7f360894a13ba1a3210667c828492db98dca3e2076cc3735a920a3ca505d382bbc60001b8114610d3c57806040517faa1d49a4000000000000000000000000000000000000000000000000000000008152600401610d339190611336565b60405180910390fd5b610d468383610eb6565b505050565b7f000000000000000000000000000000000000000000000000000000000000000073ffffffffffffffffffffffffffffffffffffffff163073ffffffffffffffffffffffffffffffffffffffff1614610dd0576040517fe07c8dba00000000000000000000000000000000000000000000000000000000815260040160405180910390fd5b565b60007ff0c57e16840df040f15088dc2f81fe391c3923bec73e23a9662efc9c229c6a00905090565b610e02610f29565b565b610e0c610f29565b565b610e188282610466565b610e5b5780826040517fe2517d3f000000000000000000000000000000000000000000000000000000008152600401610e52929190611a0a565b60405180910390fd5b5050565b6000610e8d7f360894a13ba1a3210667c828492db98dca3e2076cc3735a920a3ca505d382bbc60001b610f69565b60000160009054906101000a900473ffffffffffffffffffffffffffffffffffffffff16905090565b610ebf82610f73565b8173ffffffffffffffffffffffffffffffffffffffff167fbc7cd75a20ee27fd9adebab32041f755214dbc6bffa90cc0225b39da2e5c2d3b60405160405180910390a2600081511115610f1c57610f168282611040565b50610f25565b610f246110c4565b5b5050565b610f31611101565b610f67576040517fd7e6bcf800000000000000000000000000000000000000000000000000000000815260040160405180910390fd5b565b6000819050919050565b60008173ffffffffffffffffffffffffffffffffffffffff163b03610fcf57806040517f4c9c8ce3000000000000000000000000000000000000000000000000000000008152600401610fc691906119ef565b60405180910390fd5b80610ffc7f360894a13ba1a3210667c828492db98dca3e2076cc3735a920a3ca505d382bbc60001b610f69565b60000160006101000a81548173ffffffffffffffffffffffffffffffffffffffff021916908373ffffffffffffffffffffffffffffffffffffffff16021790555050565b60606000808473ffffffffffffffffffffffffffffffffffffffff168460405161106a9190611a7a565b600060405180830381855af49150503d80600081146110a5576040519150601f19603f3d011682016040523d82523d6000602084013e6110aa565b606091505b50915091506110ba858383611121565b9250505092915050565b60003411156110ff576040517fb398979f00000000000000000000000000000000000000000000000000000000815260040160405180910390fd5b565b600061110b610dd2565b60000160089054906101000a900460ff16905090565b60608261113657611131826111b0565b6111a8565b6000825114801561115e575060008473ffffffffffffffffffffffffffffffffffffffff163b145b156111a057836040517f9996b31500000000000000000000000000000000000000000000000000000000815260040161119791906119ef565b60405180910390fd5b8190506111a9565b5b9392505050565b6000815111156111c35780518082602001fd5b6040517f1425ea4200000000000000000000000000000000000000000000000000000000815260040160405180910390fd5b6000604051905090565b600080fd5b600080fd5b60007fffffffff0000000000000000000000000000000000000000000000000000000082169050919050565b61123e81611209565b811461124957600080fd5b50565b60008135905061125b81611235565b92915050565b600060208284031215611277576112766111ff565b5b60006112858482850161124c565b91505092915050565b60008115159050919050565b6112a38161128e565b82525050565b60006020820190506112be600083018461129a565b92915050565b6000819050919050565b6112d7816112c4565b81146112e257600080fd5b50565b6000813590506112f4816112ce565b92915050565b6000602082840312156113105761130f6111ff565b5b600061131e848285016112e5565b91505092915050565b611330816112c4565b82525050565b600060208201905061134b6000830184611327565b92915050565b600073ffffffffffffffffffffffffffffffffffffffff82169050919050565b600061137c82611351565b9050919050565b61138c81611371565b811461139757600080fd5b50565b6000813590506113a981611383565b92915050565b600080604083850312156113c6576113c56111ff565b5b60006113d4858286016112e5565b92505060206113e58582860161139a565b9150509250929050565b600080fd5b600080fd5b6000601f19601f8301169050919050565b7f4e487b7100000000000000000000000000000000000000000000000000000000600052604160045260246000fd5b611442826113f9565b810181811067ffffffffffffffff821117156114615761146061140a565b5b80604052505050565b60006114746111f5565b90506114808282611439565b919050565b600067ffffffffffffffff8211156114a05761149f61140a565b5b6114a9826113f9565b9050602081019050919050565b82818337600083830152505050565b60006114d86114d384611485565b61146a565b9050828152602081018484840111156114f4576114f36113f4565b5b6114ff8482856114b6565b509392505050565b600082601f83011261151c5761151b6113ef565b5b813561152c8482602086016114c5565b91505092915050565b6000806040838503121561154c5761154b6111ff565b5b600061155a8582860161139a565b925050602083013567ffffffffffffffff81111561157b5761157a611204565b5b61158785828601611507565b9150509250929050565b600067ffffffffffffffff8211156115ac576115ab61140a565b5b602082029050602081019050919050565b600080fd5b60006115d56115d084611591565b61146a565b905080838252602082019050602084028301858111156115f8576115f76115bd565b5b835b81811015611621578061160d888261139a565b8452602084019350506020810190506115fa565b5050509392505050565b600082601f8301126116405761163f6113ef565b5b81356116508482602086016115c2565b91505092915050565b600080604083850312156116705761166f6111ff565b5b600061167e8582860161139a565b925050602083013567ffffffffffffffff81111561169f5761169e611204565b5b6116ab8582860161162b565b9150509250929050565b600081519050919050565b600082825260208201905092915050565b60005b838110156116ef5780820151818401526020810190506116d4565b60008484015250505050565b6000611706826116b5565b61171081856116c0565b93506117208185602086016116d1565b611729816113f9565b840191505092915050565b6000602082019050818103600083015261174e81846116fb565b905092915050565b7f426173655570677261646561626c653a2075706772616465722069732074686560008201527f207a65726f206164647265737300000000000000000000000000000000000000602082015250565b60006117b2602d836116c0565b91506117bd82611756565b604082019050919050565b600060208201905081810360008301526117e1816117a5565b9050919050565b7f4e487b7100000000000000000000000000000000000000000000000000000000600052603260045260246000fd5b7f426173655570677261646561626c653a2061646d696e2061646472657373206360008201527f616e6e6f74206265207a65726f00000000000000000000000000000000000000602082015250565b6000611873602d836116c0565b915061187e82611817565b604082019050919050565b600060208201905081810360008301526118a281611866565b9050919050565b7f4e487b7100000000000000000000000000000000000000000000000000000000600052601160045260246000fd5b6000819050919050565b60006118ed826118d8565b91507fffffffffffffffffffffffffffffffffffffffffffffffffffffffffffffffff820361191f5761191e6118a9565b5b600182019050919050565b6000819050919050565b600067ffffffffffffffff82169050919050565b6000819050919050565b600061196d6119686119638461192a565b611948565b611934565b9050919050565b61197d81611952565b82525050565b60006020820190506119986000830184611974565b92915050565b6000815190506119ad816112ce565b92915050565b6000602082840312156119c9576119c86111ff565b5b60006119d78482850161199e565b91505092915050565b6119e981611371565b82525050565b6000602082019050611a0460008301846119e0565b92915050565b6000604082019050611a1f60008301856119e0565b611a2c6020830184611327565b9392505050565b600081519050919050565b600081905092915050565b6000611a5482611a33565b611a5e8185611a3e565b9350611a6e8185602086016116d1565b80840191505092915050565b6000611a868284611a49565b91508190509291505056fea26469706673582212206fe1aba4232770aef6ab1c5e122b70cc234e4102bad1d5f60ff1bc4b65dc3f6064736f6c63430008140033",
  "linkReferences": {},
  "deployedLinkReferences": {}
}